:100000000C945E000C9486000C9486000C94860080
:100010000C9486000C9486000C9486000C94860048
:100020000C9486000C9486000C9486000C94860038
:100030000C9486000C9486000C9486000C94860028
:100040000C940F050C9486000C947F050C945905B4
:100050000C9486000C9486000C9486000C94860008
:100060000C9486000C948600000000080002010039
:100070000003040700000000000000000000000072
:10008000250028002B0000000000240027002A0083
:10009000040404040404040402020202020203032E
:1000A0000303030301020408102040800102040836
:1000B0001020010204081020B105FD0711241FBE05
:1000C000CFEFD8E0DEBFCDBF22E0ACE0B2E001C0B0
:1000D0001D92A93DB207E1F712E0A0E0B1E0EAE02D
:1000E000F5E102C005900D92AC30B107D9F710E0F0
:1000F000CDE5D0E004C02197FE010E946D08CC350B
:10010000D107C9F70E940B060C94780A0C940000E2
:1001100090E0FC01EC55FF4F2491FC01E057FF4FAC
:100120008491882399F090E0880F991FFC01EA5789
:10013000FF4FA591B491FC01E458FF4F8591949134
:100140008FB7F894EC91E22BEC938FBF089590E079
:10015000FC01E859FF4F2491FC01EC55FF4F34910D
:10016000FC01E057FF4FE491EE2309F43CC0222349
:1001700039F1233091F038F42130A9F0223001F523
:1001800084B58F7D12C0273091F02830A1F0243043
:10019000B9F4809180008F7D03C0809180008F77BB
:1001A000809380000DC084B58F7784BD09C0809195
:1001B000B0008F7703C08091B0008F7D8093B00036
:1001C000F0E0EE0FFF1FE458FF4FA591B4919FB7E9
:1001D000F894611104C08C913095382302C0EC91E1
:1001E0003E2B3C939FBF08953FB7F8948091120235
:1001F00090911302A0911402B091150226B5A89B0C
:1002000005C02F3F19F00196A11DB11D3FBFBA2FA8
:10021000A92F982F8827820F911DA11DB11DBC0108
:10022000CD0142E0660F771F881F991F4A95D1F7CD
:1002300008958F929F92AF92BF92CF92DF92EF92EA
:10024000FF926B017C010E94F4004B015C01C11420
:10025000D104E104F104F1F00E94F400DC01CB01CF
:1002600088199909AA09BB09883E9340A105B105DF
:1002700070F321E0C21AD108E108F10888EE880E77
:1002800083E0981EA11CB11CC114D104E104F10447
:1002900019F7DDCFFF90EF90DF90CF90BF90AF9038
:1002A0009F908F900895CF92DF92EF92FF920F93DD
:1002B0001F93CF93DF936C017A018B01C0E0D0E0F4
:1002C000CE15DF0581F0D8016D918D01D601ED913C
:1002D000FC910190F081E02DC6010995892B11F068
:1002E0002196EECF7E01C701DF91CF911F910F9133
:1002F000FF90EF90DF90CF900895FC01538D448DD7
:10030000252F30E0842F90E0821B930B541710F0C0
:10031000CF96089501970895FC01918D828D9817CD
:1003200061F0828DDF01A80FB11D5D968C91928DD9
:100330009F5F9F73928F90E008958FEF9FEF0895D6
:10034000FC01918D828D981731F0828DE80FF11D9F
:10035000858D90E008958FEF9FEF0895FC01918DBA
:10036000228D892F90E0805C9F4F821B91098F73B3
:100370009927089586E192E00E94AE0121E0892B41
:1003800009F420E0822F0895FC01848DDF01A80F7D
:10039000B11DA35ABF4F2C91848D90E001968F73AD
:1003A0009927848FA689B7892C93A089B1898C91CC
:1003B000837080648C93938D848D981306C002881B
:1003C000F389E02D80818F7D80830895EF92FF92E5
:1003D0000F931F93CF93DF93EC0181E0888F9B8D68
:1003E0008C8D981305C0E889F989808185FD26C028
:1003F000F62E0B8D10E00F5F1F4F0F731127E02EAD
:100400008C8DE8120CC00FB607FCFACFE889F98989
:10041000808185FFF5CFCE010E94C401F1CF8B8D85
:10042000FE01E80FF11DE35AFF4FF0829FB7F894E9
:100430000B8FEA89FB89808180620AC09FB7F8949C
:10044000EE89FF896083E889F989808183708064FF
:1004500080839FBF81E090E0DF91CF911F910F914A
:10046000FF90EF900895CF93DF93EC01888D882360
:10047000C9F0EA89FB89808185FD05C0A889B98911
:100480008C9186FD0FC00FB607FCF5CF808185FFEC
:10049000F2CFA889B9898C9185FFEDCFCE010E945A
:1004A000C401E7CFDF91CF91089580E090E0892BE0
:1004B00029F00E94BA0181110C9400000895CF9395
:1004C000DF93EC0160E08E810E94A70061E08E81E5
:1004D0000E94A70060E08E810E94A7008BE891E057
:1004E0000197F1F7DF91CF910895CF92DF92EF92CC
:1004F000FF920F931F93CF93DF936C017C0187E0F2
:10050000E80EF11CC0E0D0E0062F10E0B8010C2E80
:1005100002C0759567950A94E2F76170F7018191C1
:100520007F010E94A7002196C430D10579F7C6014A
:10053000DF91CF911F910F91FF90EF90DF90CF90BF
:100540000C945F02CF92DF92EF92FF920F931F9372
:10055000CF93DF93EC01F62E642F8C810E94A700CD
:100560008D818F3F19F060E00E94A7008F850F2DCD
:1005700010E084FF25C06E0187E0C80ED11CE12C7D
:10058000F12CB8010E2C02C0759567950A94E2F71C
:100590006170F60181916F010E94A700FFEFEF1AD1
:1005A000FF0A88E0E816F10461F7CE01DF91CF91F0
:1005B0001F910F91FF90EF90DF90CF900C945F020E
:1005C000B80184E0759567958A95E1F7CE010E94A0
:1005D00075026F2DCE01DF91CF911F910F91FF908A
:1005E000EF90DF90CF900C94750240E0682F8DEB78
:1005F00092E00C94A20281E00E94F5028BE39FE15D
:100600000197F1F70895CF93DF93823028F090910E
:10061000CC0298609093CC028093D0021092D102C9
:1006200080E48093D20280E18093D30280E58093BE
:10063000D4028091C1020E9488008091C2028F3F43
:1006400011F00E9488008091C3020E948800CDEBC7
:10065000D2E09E012D5B32408091CC0284FD03C02C
:1006600084E090E002C088E090E0219628173907E6
:1006700024F48E810E948800ECCF8BE39DE00197EB
:10068000F1F760E08091C1020E94A70060E08091D4
:10069000C3020E94A7008091C2028F3F19F060E060
:1006A0000E94A7008091CC0284FD20C063E08DEB06
:1006B00092E00E947502CBE4D6E4CE010197F1F7F7
:1006C00063E08DEB92E00E9475022197F1F763E001
:1006D0008DEB92E00E94750283E592E00197F1F7BD
:1006E00062E08DEB92E00E94750215C080620E946C
:1006F000F5028BE496E40197F1F78091CC028062D9
:100700000E94F50283E592E00197F1F78091CC0217
:1007100080620E94F5028091CC0280620E94F50204
:1007200084E08093CD028CE00E94F5020E94FB02DF
:1007300082E08093CE0286E0DF91CF910C94F502A7
:10074000643008F063E09091D002691710F06FEF09
:10075000690FE62FF0E0E354FD4F9489890F80681C
:100760000C94F50241E00E94A20281E090E008951D
:100770000F931F93CF93DF938B01877028E0829FA5
:10078000C001112480640E94F502E801085F1F4F38
:1007900069918DEB92E00E94B203C017D107C1F7B7
:1007A000DF91CF911F910F910895089580E090E01F
:1007B0000895009769F0FC0101900020E9F7319756
:1007C000AF01481B590BBC018DEB92E00C94530117
:1007D00080E090E008950E94FB0260E080E00E94CB
:1007E000A0038CE591E00E94D90360E081E00E94C3
:1007F000A003E091B502F091B602EE0FFF1FEA5C94
:10080000FE4F808191810E94D90361E080E00E94C7
:10081000A003E091B302F091B402EE0FFF1FEA5C77
:10082000FE4F808191810C94D903CF93DF93FC011B
:10083000448155816081718186E192E00E9453017B
:10084000EC0142E050E06EE571E086E192E00E944A
:1008500053018C0F9D1FDF91CF9108950E945A0A7A
:100860000F931F93CF93DF93EC01888199810097B9
:1008700029F02A813B812617370788F48B016F5FA7
:100880007F4F0E949409009761F0998388831B83AE
:100890000A832C813D81232B11F4FC01108281E01D
:1008A00001C080E0DF91CF911F910F910895CF9308
:1008B000DF93EC0188819981009711F00E940B0968
:1008C000198218821D821C821B821A82DF91CF91AD
:1008D0000895EF92FF920F931F93CF93DF93EC0154
:1008E000FB0104811581E080F180E114F104C9F07D
:1008F00001151105C9F08C819D81080F191FB801E0
:10090000CE010E943004882361F0288139818C81D6
:100910009D81B701820F931F0E94710A1D830C8372
:1009200003C0CE010E945704CE01DF91CF911F91E9
:100930000F91FF90EF900895EF92FF920F931F9306
:10094000CF93DF93EC017B018A01BA010E9430044E
:10095000811104C0CE010E94570407C01D830C837F
:10096000B701888199810E94710ACE01DF91CF91F0
:100970001F910F91FF90EF900895EF92FF920F93C8
:100980001F93CF93DF93CDB7DEB762970FB6F8947E
:10099000DEBF0FBECDBF8C01CB01F80111821082EA
:1009A00013821282158214824AE09E012F5F3F4F0C
:1009B0007901B9010E940108F70101900020E9F7CF
:1009C0003197AF014E195F09B701C8010E949C041D
:1009D00062960FB6F894DEBF0FBECDBFDF91CF9108
:1009E0001F910F91FF90EF900895FC0111821082EA
:1009F00013821282158214826115710551F0FB0178
:100A000001900020E9F73197AF01461B570B0C947A
:100A10009C040895FC01808191810C940B091F9224
:100A20000F920FB60F9211242F933F938F939F93A2
:100A3000AF93BF9380910E0290910F02A09110028C
:100A4000B091110230910D0223E0230F2D3720F4D5
:100A50000196A11DB11D05C026E8230F0296A11D18
:100A6000B11D20930D0280930E0290930F02A0936C
:100A70001002B09311028091120290911302A09182
:100A80001402B09115020196A11DB11D80931202AE
:100A900090931302A0931402B0931502BF91AF91EB
:100AA0009F918F913F912F910F900FBE0F901F90AC
:100AB00018951F920F920FB60F9211242F933F9308
:100AC0004F935F936F937F938F939F93AF93BF9356
:100AD000EF93FF9386E192E00E94C401FF91EF91B2
:100AE000BF91AF919F918F917F916F915F914F9146
:100AF0003F912F910F900FBE0F901F9018951F924E
:100B00000F920FB60F9211242F938F939F93EF9311
:100B1000FF93E0912602F09127028081E0912C0260
:100B2000F0912D0282FD12C0908180912F028F5F83
:100B30008F7320913002821751F0E0912F02F0E084
:100B4000EA5EFD4F958F80932F0201C08081FF9157
:100B5000EF919F918F912F910F900FBE0F901F904B
:100B60001895E6E1F2E01382128288EE93E0A0E0AD
:100B7000B0E084839583A683B78382E491E0918378
:100B8000808385EC90E09587848784EC90E097875C
:100B9000868780EC90E0918B808B81EC90E0938B4A
:100BA000828B82EC90E0958B848B86EC90E0978B27
:100BB000868B118E128E138E148EEDEBF2E0138263
:100BC000128284E591E0918380838CE084838FEFAF
:100BD00085838BE0868384E0878385E0808786E059
:100BE000818787E082871386148615861686178686
:100BF00081E00E94030360E671E087EB92E00E94CF
:100C0000F5048091B5029091B60201969093B402DA
:100C10008093B3020895CF93DF93CDB7DEB72C97BF
:100C20000FB6F894DEBF0FBECDBF789484B5826056
:100C300084BD84B5816084BD85B5826085BD85B580
:100C4000816085BD80916E00816080936E001092FE
:100C50008100809181008260809381008091810079
:100C6000816080938100809180008160809380000A
:100C70008091B10084608093B1008091B000816068
:100C80008093B00080917A00846080937A00809194
:100C90007A00826080937A0080917A0081608093EC
:100CA0007A0080917A00806880937A001092C10067
:100CB000E0912602F091270282E08083E0912202F7
:100CC000F09123021082E0912402F09125028FEC32
:100CD000808310922E02E0912A02F0912B0286E08E
:100CE0008083E0912802F0912902808180618083D5
:100CF000E0912802F0912902808188608083E09150
:100D00002802F0912902808180688083E091280286
:100D1000F091290280818F7D808382E00E9403030D
:100D200068E271E081E00E94B80360E271E082E075
:100D30000E94B80368E171E083E00E94B80360E1BB
:100D400071E084E00E94B80368E071E085E00E94F1
:100D5000B80360E071E086E00E94B80360E080E0E4
:100D60000E94A00381E691E00E94D90361E080E047
:100D70000E94A00380E791E00E94D90368E873E134
:100D800080E090E00E9419010E94FB020E94EB03A8
:100D9000DD24D39403E010E0EE24E394F12C86E10B
:100DA00092E00E94AE011816190684F586E192E0E1
:100DB0000E948C0189831A82A090BB02B090BC0271
:100DC0008FEFA81AB80AB50187EB92E00E943004B1
:100DD000882399F02091B7023091B8028091BB022C
:100DE0009091BC02BE016F5F7F4F820F931F0E94E4
:100DF000710AB092BC02A092BB02D0920C0262E0D7
:100E000070E080E090E00E941901C9CF80910C024F
:100E1000882309F4EFC087EB92E00E9415048091CB
:100E2000BB029091BC02892B21F1A090B702B09037
:100E3000B80262E871E0C5010E94680A892B49F492
:100E40008091B5029091B60201969093B60280937C
:100E5000B50264EE71E0C5010E94680A892B49F46D
:100E60008091B5029091B60201979093B60280935B
:100E7000B5028091B5029091B6029C012F5F3F4F61
:100E80003093B4022093B302049744F01092B60258
:100E90001092B502F092B402E092B3028091B502D2
:100EA0009091B60297FF08C01093B6020093B50266
:100EB0001092B4021092B3028091B5029091B602E2
:100EC000039721F41092B4021092B3020E94EB0334
:100ED0006091B5027091B602CE0107960E94BD04E2
:100EE00064E871E0CE0101960E94F504BE01695FDD
:100EF0007F4FCE0101960E9469040E941504CE0125
:100F000001960E940A05CE0107960E940A05E0910B
:100F1000B502F091B602EE0FFF1FEA5CFE4F608152
:100F20007181CE0107960E94F50466EA71E0CE0158
:100F300001960E94F504BE01695F7F4FCE010196C4
:100F40000E9469040E941504CE0101960E940A05C0
:100F5000CE0107960E940A056091B3027091B40217
:100F6000CE0107960E94BD0468EB71E0CE010196A8
:100F70000E94F504BE01695F7F4FCE0101960E9479
:100F800069040E941504CE0101960E940A05CE0153
:100F900007960E940A05E091B302F091B402EE0FA9
:100FA000FF1FEA5CFE4F60817181CE0107960E94AF
:100FB000F50466EA71E0CE0101960E94F504BE01D7
:100FC000695F7F4FCE0101960E9469040E9415045B
:100FD000CE0101960E940A05CE0107960E940A05DD
:100FE00040E050E060E671E087EB92E00E949C04F4
:100FF00010920C020E945502D2CE87EB92E00C9424
:101000000A05BB274A3031F4992322F4BDE29095BA
:1010100081959F4F0C940D08BB27FB015527AA27EC
:10102000880F991FAA1FA41710F0A41B8395505175
:10103000B9F7A05DAA3308F0A95DA193009779F7ED
:10104000B111B1931192CB010C942608DC01FC0183
:10105000672F71917723E1F7329704C07C916D93EC
:1010600070836291AE17BF07C8F308952F923F9225
:101070004F925F926F927F928F929F92AF92BF92A8
:10108000CF92DF92EF92FF920F931F93CF93DF9354
:10109000CDB7DEB7CA1BDB0B0FB6F894DEBF0FBEB1
:1010A000CDBF09942A88398848885F846E847D84FE
:1010B0008C849B84AA84B984C884DF80EE80FD8000
:1010C0000C811B81AA81B981CE0FD11D0FB6F89476
:1010D000DEBF0FBECDBFED010895EE0FFF1F0590DF
:1010E000F491E02D09940F931F93CF93DF938230F7
:1010F000910510F482E090E0E091D702F091D802DF
:1011000020E030E0A0E0B0E0309719F1408151815B
:101110000281138148175907C8F08417950769F4AD
:10112000109731F012960C93129713961C9327C0C8
:101130000093D7021093D80222C02115310519F06F
:101140004217530718F49A01BD01EF01DF01F801BE
:10115000DBCF21153105F9F0281B390B243031057F
:1011600080F48A819B816115710521F0FB019383D5
:10117000828304C09093D8028093D702FE013296F6
:1011800044C0FE01E20FF31F819391932250310975
:10119000398328833AC02091D5023091D602232B7F
:1011A00041F420913201309133013093D6022093E3
:1011B000D50220913001309131012115310541F4E2
:1011C0002DB73EB74091340150913501241B350BAA
:1011D000E091D502F091D602E217F307A0F42E1B9E
:1011E0003F0B2817390778F0AC014E5F5F4F24178B
:1011F000350748F04E0F5F1F5093D6024093D5023B
:101200008193919302C0E0E0F0E0CF01DF91CF91B4
:101210001F910F910895CF93DF93009709F481C038
:10122000FC01329713821282A091D702B091D802AA
:10123000109781F420813181820F931F2091D50274
:101240003091D6022817390751F5F093D602E09372
:10125000D50267C0ED0120E030E0CE17DF0740F493
:101260004A815B819E0141155105F1F0EA01F5CFFC
:10127000D383C28340815181840F951FC817D9073A
:1012800059F488819981840F951F029691838083F8
:101290008A819B81938382832115310529F4F09300
:1012A000D802E093D7023DC0E901FB83EA8349916C
:1012B0005991C40FD51FEC17FD0761F4808191810E
:1012C000840F951F0296E901998388838281938117
:1012D0009B838A83E0E0F0E012968D919C911397B6
:1012E000009719F0FD01DC01F7CF8D919C911197CA
:1012F0009D012E5F3F4F820F931F2091D5023091A9
:10130000D6022817390769F4309729F41092D802C9
:101310001092D70202C013821282B093D602A09319
:10132000D502DF91CF910895A0E0B0E0EAE9F9E0BD
:101330000C943A08EC01009721F4CB010E94730849
:10134000B4C0FC01E60FF71F9C0122503109E217DF
:10135000F30708F4A8C0D9010D911C911197061745
:101360001707B0F00530110508F49BC0C8010497B9
:101370008617970708F495C002501109061B170B32
:10138000019311936D937C93CF010E940B0989C047
:101390005B01A01AB10A4C01800E911EA091D702E8
:1013A000B091D802612C712CE12CF12C109709F42A
:1013B00046C08D919C911197A815B905B1F56C01A6
:1013C00042E0C40ED11CCA14DB0478F14C018A1827
:1013D0009B08640142E0C40ED11C1296BC90129787
:1013E0001396AC91B5E0CB16D10440F0B282A38342
:1013F00091828082D9016D937C9309C00E5F1F4F4B
:10140000800F911FF90191838083EB2DFA2FE11456
:10141000F10431F0D7011396FC93EE93129741C07B
:10142000F093D802E093D7023CC06816790608F41E
:101430003C017D0112960D90BC91A02DB7CF8091FB
:10144000D5029091D60288169906E1F466167706C1
:10145000C8F48091300190913101009741F48DB72B
:101460009EB74091340150913501841B950BE817CC
:10147000F907C8F4F093D602E093D502F90171831D
:1014800060830FC0CB010E9473087C01009759F064
:10149000A801BE010E945F0ACE010E940B09C7018C
:1014A00004C0CE0102C080E090E0CDB7DEB7EEE030
:1014B0000C94560881E090E0F8940C94780AFB01B3
:1014C000DC0102C001900D9241505040D8F70895C0
:1014D000FB01DC018D91019080190110D9F3990B6A
:1014E0000895FB01DC0101900D920020E1F70895C1
:1014F00010E0CDE5D0E004C0FE010E946D08219609
:0A150000CE35D107C9F7F894FFCFEC
:10150A001111111F010101001F10101010101000FD
:10151A0003050911111111001515150E15151500E0
:10152A0004111111131519001F11111111111100B4
:10153A000000D9022000E601F101FA0101020000CF
:10154A000000E60153017D013302AE018C01A001C6
:10155A0000000000B2035301D603D5033E000D0A72
:10156A0000014F434554555445204341025421003C
:10157A0068747470733A2F2F6D6972762E746F7057
:10158A0020003200D09DD0BED0BCD0B5D18020D0B2
:10159A00BFD183D0BDD0BAD182D0B020D0BCD0B513
:1015AA00D0BDD18E3A00D09DD0B0D0B7D0B2D0B095
:1015BA00D0BDD0B8D0B53A00D09DD0BED0BCD0B541
:1015CA00D18020D181D0BBD0B5D0B42E20D0BFD10C
:1015DA0083D0BDD0BAD182D0B020D0BCD0B5D0BDD6
:1015EA00D18E3A003100014F44054F544F424B41CE
:1015FA000001504F4245504B410033410179434B62
:0C160A000006014F4B212121212100008E
:00000001FF
